:0200000460009A
:100000004643464200000156000000000103030081
:1000100000000000000000000000000000000000E0
:1000200000000000000000000000000000000000D0
:1000300000000000000000000000000000000000C0
:1000400000000000010408000000000000000000A3
:100050000000800000000000000000000000000020
:100060000000000000000000000000000000000090
:100070000000000000000000000000000000000080
:10008000EB04180A063204260000000000000000FD
:10009000050404240000000000000000000000002F
:1000A0000000000000000000000000000000000050
:1000B0000604000000000000000000000000000036
:1000C0000000000000000000000000000000000030
:1000D00020041808000000000000000000000000DC
:1000E0000000000000000000000000000000000010
:1000F0000000000000000000000000000000000000
:10010000D8041808000000000000000000000000F3
:100110000204180804200000000000000000000095
:1001200000000000000000000000000000000000CF
:10013000600400000000000000000000000000005B
:1001400000000000000000000000000000000000AF
:10015000000000000000000000000000000000009F
:10016000000000000000000000000000000000008F
:10017000000000000000000000000000000000007F
:10018000000000000000000000000000000000006F
:10019000000000000000000000000000000000005F
:1001A000000000000000000000000000000000004F
:1001B000000000000000000000000000000000003F
:1001C000000100000010000001000000000000001D
:1001D000000001000000000000000000000000001E
:1001E000000000000000000000000000000000000F
:1001F00000000000000000000000000000000000FF
:10020000FFFFFFFFFFFFFFFFFFFFFFFFFFFFFFFFFE
:10021000FFFFFFFFFFFFFFFFFFFFFFFFFFFFFFFFEE
:10100000D10020434D1600600000000000000000E9
:10101000201000600010006000000160000000006F
:1010200000000060000C010000000000FFFFFFFF57
:10103000FFFFFFFFFFFFFFFFFFFFFFFFFFFFFFFFC0
:10104000FFFFFFFFFFFFFFFFFFFFFFFFFFFFFFFFB0
:10105000FFFFFFFFFFFFFFFFFFFFFFFFFFFFFFFFA0
:10106000FFFFFFFFFFFFFFFFFFFFFFFFFFFFFFFF90
:10140000814205D051F8043B40F8043B8242F9D8B0
:10141000704700BF044A05494FF0000342F8043BFF
:101420009142FBD8704700BFC0160020203000203A
:101430002DE98848BFF34F8F00BF00BF00BF00BF3A
:1014400000F094F9684B0822C3F8542100BF00BF94
:1014500000BF00BF00BF00BF00BF00BF00BF00BF94
:1014600000BF00BF00BF00BF00BF00BF5F4A6049B0
:101470006048FFF7C5FF604A60496148FFF7C0FF59
:10148000604CFFF7C7FF4FF470004FF0E0210023DE
:101490005D4AC1F8880D44F823200133B02BFAD1FE
:1014A0005A4B80215A4A03F8011B9342FBD14FF05B
:1014B000E0254D4E4FF08039DFF884B1DFF884A18C
:1014C0004FF0FF31C5F8084D0027C6F80491C6F863
:1014D00000B1C6F8F490C6F8F0A0D5F8243DDFF8C6
:1014E000688143F4E0234B4AC5F8243DD8F81C300A
:1014F00023F07F0343F04003C8F81C30D8F82430B1
:1015000023F07F0343F04003C8F824309166D1668E
:101510001167516700F032F93F4B4049A363404BDC
:10152000E36363236B610323AF612B613D4BC5F81C
:10153000203DD5F8FC3D43F08073C5F8FC3D3A4BA7
:101540001A6842F001021A605B680B6000F060FBF1
:10155000C6F804913548C6F800B1C6F8F490C6F84C
:10156000F0A000F009FDD8F86C10314B314A41F47D
:101570004051C8F86C101F60C3F80871C3F81871A7
:10158000C3F82871C3F83871936BDB0708D442F6AF
:101590001563294951651365936B43F00103936308
:1015A000244A264C936843F00113936000F06EF9CF
:1015B00000F092FC00F0E8FC00F058FB00F0D8F8D6
:1015C0002368132BFCD900F0E9FB2368B3F5967F61
:1015D000FBD300F0D1F800F0CDF800F0ADFC00F046
:1015E000CFFC30BFFDE700BF00800D40B8C3000056
:1015F0005022006000000000C01600200CE60060D1
:101600000000002000140020E99C000000E400E03D
:10161000A0E400E000C00A403D920000882F0020B6
:101620004192000000002020001000E00046C3238B
:101630000040084000400D400000C0568C2F0020A4
:101640001B1018200C0D111300C00F40054B4FF458
:101650002A01054A05485A641864054A9963954663
:10166000FFF7E6FE00C00A40AFAAAAAA07002000C2
:1016700000000720B1F5607FF0B50E468DB028BFA1
:101680004FF460760F46054672B62E4B002470224A
:10169000186021462C4B2D481C8000F061FCCFB116
:1016A00021462A484FF0010C4A0901F01F0301317D
:1016B00050F822400CFA03F38E4243EA040340F848
:1016C0002230F1D8284600234380013300F5827090
:1016D0009E42F9D81E4C257815B162B60DB0F0BD0A
:1016E000082000F039FC1B4B80220646009302A91B
:1016F0000693194B0271056008A8029300F024FCC0
:1017000006A9164A304600F01BFC069B08A8DB68B9
:101710009847009B02A8DB6898472378002BDCD110
:101720000F4B104AC3F858210F49D0204FF0E02347
:10173000402281F84600C3F808210123237062B6D5
:101740000DB0F0BD0C2A0020CC2F0020142A002060
:10175000DB2F00204C080020A98C00001B1001008A
:1017600000140020B58C000000E400E0704700BFCA
:10177000704700BF704700BF00BF704710B44FF004
:10178000E023002110243148C3F8941DC3F89C4D78
:101790001124C3F8A00D2E48C3F89C4D1224C3F8A1
:1017A000A00D2C48C3F89C4D2B4AC3F8A00D2B4C20
:1017B00042F015022A48C3F89C4DC3F8A00D294CED
:1017C0002948C3F89C4DC3F8A00D284CC3F89C2DA4
:1017D0002748284AC3F8A04DC3F89C0DC3F8A02D94
:1017E00002F5A022244C0C322448C3F89C4DC3F8C7
:1017F000A02D234AC3F89C0D224CC3F8A02D02F162
:101800004062C3F89C4D2048C3F8A02D0C32C3F8A9
:101810009C0DC3F8A02D00BF00BF00BF00BF00BFDC
:101820000122C3F8942DBFF34F8FBFF36F8FC3F81E
:10183000501FBFF34F8FBFF36F8FD3F8142D5DF898
:10184000044B42F44032C3F8142D70473F0000109F
:101850002500080709001000203000201300200098
:1018600021000207140000202500081309000010C1
:101870001600202027000B131700004018000060FE
:101880002F000B07190000701A000080F0B5B84B4C
:101890001822B84E0120B84F83B0C3F85C62B74934
:1018A000C3F86072B64DC3F86462A6F53046B54C15
:1018B000C3F86862C3F86C52C3F87052C3F874522C
:1018C000C3F8785248F20C75DA661A675A679A6755
:1018D000DA67C3F88020C3F88420C3F88820C1F8F1
:1018E0002C03A94AC1F83003C1F83403C1F8380306
:1018F000C1F83C03C1F85003A169A44B0A40A448B5
:10190000A4491343A44AA361D4F8843043F00C03E0
:10191000C4F884304FF0FF34036843F002030360DF
:1019200003682B404FF400551A439C4B02604460FF
:101930008A689B4C13409B4A43F000538360C36802
:1019400023F07803C360036A134023430362036AEE
:101950001340954A2343954C43628262C26200223F
:10196000D1F8B83023F03F0343F00103C0F8B8309A
:10197000D1F8BC308E4923F03F0343F00103C0F897
:10198000BC3040F20563026105660467C0F8803030
:10199000456644670224C0F88430036823F00203DC
:1019A00003608161834B8449C46143F8042B8B42FB
:1019B000FBD1774A136843F001031360136813F0F7
:1019C0000103FBD17A48022140F2F564906140F2B4
:1019D0009940D16140F26641C2F8004242F20144AE
:1019E000C2F810127549C2F82002C2F8301240F253
:1019F00035417348C2F83442C2F84012714CC2F803
:101A0000500242F201207049C2F854120121C2F87A
:101A10006042C2F864025E48C2F8A030C2F8A43046
:101A2000C2F8B0104369DA07FCD5012300244FF453
:101A3000803257494361C0F8A040C0F8A420C0F8E4
:101A4000B0304B69DB07FCD5012300244FF4003094
:101A50004F4A4B61C1F8A040C1F8A400C1F8B030B2
:101A60005369DF07FCD501230024584848495361D6
:101A7000C2F8A040C2F8A400C2F8B0304B69DE073B
:101A8000FCD5D1F8003145F60D5221209BB24861BA
:101A9000934265D100244FF4802201233C48C1F8D1
:101AA000A040C1F8A420C1F8B0304369DD07FCD5DF
:101AB00001234FF400040021354A4361C0F8A040DF
:101AC000C0F8A410C0F8B0305369DC07FCD501237E
:101AD0004FF400044FF480302D495361C2F8A04008
:101AE000C2F8A400C2F8B0304B69D807FCD5012376
:101AF0004FF400044FF40030254A4B61C1F8A04078
:101B0000C1F8A400C1F8B0305369D907FCD501234E
:101B10004FF400042D481E495361C2F8A040C2F89A
:101B2000A400C2F8B0304B69DA07FCD5D1F8003117
:101B300045F60D5221209BB24861934250D00825B2
:101B40004FF4000422490020224B234A00901570D4
:101B50005A1A01232148224400F00AFA03B0F0BDCA
:101B60001E4B0022C3E90022C3E9022203B0F0BDEC
:101B700000801F40F9B00100F910010000841F40EF
:101B8000F970010000C00F40FFFCFF1F000300A020
:101B900000402A4000802A401200FFFFFF37F70074
:101BA0004000008000FFF07CFF000F836300020014
:101BB000F05AF05A00422A4000432A409F0418304D
:101BC000EB06180A3806180A06320126040003003C
:101BD0000000007000000070E32F0020E02E0020C5
:101BE0004FF400044FF4802201230848C1F8A040BC
:101BF000C1F8A420C1F8B0304369DB07FCD501234C
:101C000010254FF0807443619CE700BF00402A40DC
:101C1000F0B4154A40274FF480314FF480564FF40A
:101C200000554FF4404443F24200136913F0020F91
:101C30000ED113F4005F0FD013F4805F0ED0002B91
:101C4000F3DA13F4803F0BD15B060BD5F0BC704781
:101C5000946151619061E8E75561E6E75661E4E718
:101C60009161E2E75761E0E700800D403F4A0320C1
:101C70003F49F3EE095AD2F880304FF0000C9FED47
:101C80003D6A23F001039FED3C5A30B4C2F8803026
:101C9000C2F89000D1F8E010384DCBB2384C39483A
:101CA0002B6007EE903A0B0DC1F30B21F8EEE77AAB
:101CB00006EE903A07EE101A334BB8EEC77A216061
:101CC000F8EEE66A314937EEC66A37EEC55A76EE67
:101CD000C76A77EEE57A26EE266AC3ED006A25EE3E
:101CE000265AD2F8803067EEA64AC0ED007AC6EEDA
:101CF000275A274885EE276AC4EEA76A75EE875AE9
:101D0000FCEEE55A36EE076A15EE904ABCEEC66A5E
:101D100043EA045376EE877AC2F8803016EE103A22
:101D2000D2F89041FCEEE77A01EA0341214317EE35
:101D3000903AC2F89011C3F30B03D2F890110B4301
:101D40001449C2F89031D2F8803043F00203C2F84F
:101D50008030114B80F840C0C1F840314FF0E02393
:101D6000012230BCC3F80821704700BF00810D403C
:101D700000441F400000AA420000B442782F002017
:101D8000742F00207C2F0020802F00200000FF0FE8
:101D900000E400E000140020AD9E0000314B40F64E
:101DA000617210B5C3F8202140F2044400F0DCF861
:101DB0002D4A2E49D2F880302D4843F00303C2F853
:101DC00080302C4BC1F8604102681A4203D1D1F82F
:101DD000A8319A071BD0254A4FF00041244B596384
:101DE000D2F8403143F00203C2F84031D2F840311A
:101DF0009B07FBD44FF400304FF0E0211C4B4FF019
:101E00000042C1F88C0219209A6300F0A1F8184A28
:101E10004FF08040154C002190630A20164B116052
:101E20004FF42072C4F8A801184600F099F84FF456
:101E3000800203464FF4810040F243111860C4F859
:101E400058311A640D4B0E4AC4F84811C3F80422E5
:101E50004FF0E0224FF400310123C2F80C11C4F816
:101E6000403110BD00800D4000C00F4000002E40EA
:101E700000900D40001C1E000000002000140020F7
:101E800095A1000008B50E4B1B6E9B0700D4FBBE4E
:101E900072B60C4B00200C4AC3F8400103F16043BA
:101EA0000A49A3F55F2311649D46BFF34F8F4FF49A
:101EB00000130748074ADB6902609B68984700BF28
:101EC00000441F4000002E4000C00A4003002000D4
:101ED00000802020000012EB104BA020104AD96E89
:101EE00041F4403110B4D96640F23764D96E41F400
:101EF0004071D96654649064936C1B06FCD4094A03
:101F000040F23761A02351649364936C13F0800313
:101F1000FBD1054A13705DF8044B704700C00F40B9
:101F200000400C4000800C40E22F0020F8B500BFBC
:101F3000F8BC08BC9E4670475FF800F005BF000083
:101F40005FF800F0159300005FF800F01D8D0000B1
:101F50005FF800F08D9700005FF800F0B59A000080
:101F60005FF800F0A5BD00005FF800F0F9B00000D8
:101F70005FF800F019B600005FF800F09D940000D3
:101F80005FF800F0719900005FF800F09D9B000081
:101F9000450000008900000079010000ED05000007
:101FA000050600001D060000350600004D06000075
:101FB000650600007D06000095060000AD060000E5
:101FC000C5060000DD060000F50600000D07000054
:101FD000250700003D070000550700006D070000C1
:101FE000850700009D070000D107000001080000E0
:101FF00019080000310800004908000061080000CD
:08200000151B000019940000FB
:1020080007080C0B06050F000D0EFFFF0304070859
:102018000C0B06050F000D0EFFFF0304FFFFFFFF6B
:10202800FFFFFFFFFFFF0102090A00001A03540027
:10203800650065006E00730079002000410075009E
:10204800640069006F000000180354006500650013
:102058006E00730079006400750069006E006F00FF
:10206800040309040902E900040100C0320904005C
:1020780000020300000009211101000122210007CC
:1020880005820340000107050203200002080B0136
:1020980003010100000904010000010100000A24F5
:1020A8000100013E000202030C24020102060002A4
:1020B800030000000924030201010001000C2402AE
:1020C8000301010002030000000A24063103010194
:1020D8000202000924030402060031000904020078
:1020E80000010200000904020101010200000724A6
:1020F80001020301000B2402010202100144AC009A
:1021080009058309B400010000072501000000004B
:10211800090403000001020000090403010201028E
:102128000000072401030301000B2402010202102E
:102138000144AC0009050305B4000100840725012A
:1021480000000000090584110300010500000000DB
:102158000902E900040100C032090400000203007A
:102168000000092111010001222100070582034016
:10217800000107050203200002080B01030101000A
:10218800000904010000010100000A240100013EC9
:10219800000202030C2402010206000203000000F0
:1021A8000924030201010001000C240203010100BB
:1021B80002030000000A240631030101020200099B
:1021C8002403040206003100090402000001020091
:1021D80000090402010101020000072401020301B1
:1021E800000B2402010202100144AC000905830916
:1021F800B4000400000725010000000009040300E2
:102208000001020000090403010201020000072482
:1022180001030301000B2402010202100144AC0077
:1022280009050305B4000400840725010000000027
:102238000905841104000407000000000A060002D2
:0822480000000040010000004D
:10225000000000000000000000000000000000007E
:10226000000000000000000000000000000000006E
:102270000548064B1B1AD90F01EBA301491002D0E8
:10228000034B03B118477047C0160020C01600204A
:102290000000000008B5054B1BB105490548AFF328
:1022A0000080BDE80840FFF7E3BF00BF000000006A
:1022B000F42E0020000C016004480C2108B50CF03D
:1022C00097F90348BDE808400AF0BABE0000202094
:1022D000942F0020704700BF70B52E4D00212E4A6C
:1022E00082B02E4E2B68166011611181D160002BD7
:1022F0004BD019465B69002BFBD14A610024284B67
:102300001620136054615460947200F0E3F9254A7A
:102310004FF400702B681146D460108141F8186B9F
:102320001161C2E90644002B31D019465B69002BCC
:10233000FBD14A6100241C4B1A48012554615460AA
:10234000947213600AF07CFE184808F0DFFE154B0B
:10235000224611490094154808F04CFF144A1549CB
:1023600012480BF0C3FA144808F0D0FE22460A497E
:102370000C4B0095104808F03DFF0D4A0D490E48E2
:1023800002B0BDE870400BF0B1BA2A60B6E72A602F
:10239000D0E700BF102A0020342F00205006002074
:1023A00068060020942F00205C0600200C2F0020DF
:1023B000F80D002059900000202F002010B5044691
:1023C00008F0E6FF204610BD024A034903480BF01F
:1023D0008DBA00BFF80D00206D010000B42B002065
:1023E00030B482B00C4602AB03E90600C37C002B7C
:1023F00030D072B6C37CDA0708D54FF0E0214569CA
:10240000D1F880212A408262C1F880219D0708D539
:102410004FF0E0218569D1F884212A40C262C1F8D9
:102420008421590708D54FF0E021C569D1F88821EA
:102430002A400263C1F888211A0708D54FF0E0212D
:10244000056AD1F88C212A404263C1F88C21DB0651
:102450002FD462B683689C4235D0224B84609B693E
:10246000214AC3F30111C3F3826352F821100133EF
:10247000B1FBF3F2CCB1944227D8B2FBF4F3B2FB38
:10248000F3F294422CD3B3F5817F20D3174CC46070
:10249000036803220020019918615A6201221C641A
:1024A00019661A6102B030BC70479942EFD3531CD1
:1024B000E9E74FF0E022416AD2F890310B408363A4
:1024C000C2F89031C5E7C468E2E70024DFE7022BD9
:1024D000FBD9023B5A08140244EA02441C43D6E7E3
:1024E0001A46E4E700C00F405C080020FF7F7F0031
:1024F0002DE9F04F2DED028B85B008EE100A08F0A3
:102500003FFD002800F0CD80684B8146684D1B6878
:10251000D3F810A005F5B263AAF102020193AA4212
:1025200038BF9A46634B38BF05F28E52D3F800B0DD
:10253000934516D8A2EB0B0240F25A45AA4233DC6F
:1025400040F22D28571015465B4CB8EB620830D08E
:102550004FEA4806A118204632460BF0CFFCA019DE
:1025600028E0019B551B40F22D21A3EB0B066F10B9
:1025700007EB660773108F4275DDB6F58B6F00F3BE
:102580008780C91A32464D004B4C16464FF0000862
:1025900040F22D272046594609F01AFB2A46A01979
:1025A000434909F015FB09E0434C4FF0000840F2A5
:1025B0002D2720462A46594609F00AFB3C4B019A32
:1025C000924528BF9A463B4BB7F5FE7FC3F800A063
:1025D00041DD04EB4804394EB4421BD2DFF8F0C0B1
:1025E000374F384DDCF800303868B4F900201B1A3A
:1025F000900303EB823282FB05314FEA810141EA0D
:10260000937323F38F3224F8022BB442EDD3CCF82A
:1026100000303860284F09F1040C2B4E07F5806E0E
:102620003A462A4B21240020002101E033F9024FD1
:1026300032F8025B9E42C5FB8401F7D120F34F3094
:1026400008372CF8020BBE45EAD10022494618EEA5
:10265000100A08F013FD484605B0BDEC028BBDE83A
:10266000F04F08F0E3BCB1EB070815D0124C4FEA6D
:102670004802039304EB4701204602920BF03EFC14
:10268000039B029A08EB0301A01832464E0082E732
:10269000002540F25A4277E7074C32460F46204663
:1026A00079E705B0BDEC028BBDE8F08F242B00204C
:1026B000C0160020EC0D00207C250020D62900202B
:1026C0002C2B002000B0FB3F04040020AC030020B2
:1026D000302B0020292800F29180F8B5484D04469F
:1026E0002B5CFF2B00F08980464AF6EE007A9FEDC6
:1026F000466A052192ED007A0026444B43F2230EF0
:10270000B8EE477A4FF0020CDA8B2720404FC7EE25
:10271000066A22F008021204120CDA834122A3F89E
:102720006E106B21A3F87420A3F86A60A3F86660AA
:10273000E6EEA77AFDEEE77A17EE902A92B2A3F8BA
:102740006020A3F87020A3F86CE0A3F878C0A3F889
:102750006A60DA8B92B242F00802DA833B6F43F48C
:1027600040033B6709F0BCFB2A4B1A6812F0404F4C
:1027700001D01E601E60274B41F2100126481A68E6
:102780002C5D02251043254A04F00F041860D86818
:1027900021434FF4E04440F01000D86042F248700A
:1027A000C3F8B040C3F8B810002150641020936CF7
:1027B0001B4C43F0200393641060204608F08EFD0C
:1027C0002368184800221849186018485960186191
:1027D0004FF432702179D8829D820CB2D88314488C
:1027E0009A83C3E90252A5F292559D6140F82420D4
:1027F000104B114A40F82420D976F8BD704700BF2D
:1028000008200060800D002000442C4800801E40FD
:1028100000C00F4000003B401000002000800C4032
:10282000242B0020C8003B4000000101C0160020FE
:1028300000C00E4000800E4017000080024A03498D
:1028400003480BF053B800BFF80D00206D010000E5
:10285000242B0020024A034903480BF047B800BF6D
:10286000F80D00206D0100008C2A0020024A034967
:1028700003480BF03BB800BFF80D00206D010000CD
:10288000B42A0020024A034903480BF02FB800BFC6
:10289000F80D00206D010000342B0020024A03498E
:1028A00003480BF023B800BFF80D00206D010000B5
:1028B0003C2B0020024A034903480BF017B800BF25
:1028C000F80D00206D010000542B0020024A03493E
:1028D00003480BF00BB800BFF80D00206D0100009D
:1028E000942A0020024A034903480AF0FFBF00BFB0
:1028F000F80D00206D010000BC2A0020024A0349A7
:1029000003480AF0F3BF00BFF80D00206D0100007E
:10291000442B0020024A034903480AF0E7BF00BFE6
:10292000F80D00206D0100009C2A0020024A034996
:1029300003480AF0DBBF00BFF80D00206D01000066
:10294000C42A0020024A034903480AF0CFBF00BF4F
:10295000F80D00206D010000CC2A0020024A034936
:1029600003480AF0C3BF00BFF80D00206D0100004E
:10297000142B0020024A034903480AF0B7BF00BFE6
:10298000F80D00206D0100005C2B0020024A034975
:1029900003480AF0ABBF00BFF80D00206D01000036
:1029A000642B0020024A034903480AF09FBF00BF7E
:1029B000F80D00206D010000842B0020024A03491D
:1029C00003480AF093BF00BFF80D00206D0100001E
:1029D000D42A0020024A034903480AF087BF00BFF7
:1029E000F80D00206D0100006C2B0020024A034905
:1029F00003480AF07BBF00BFF80D00206D01000006
:102A00008C2B002010B5054C04F1080008F0C0FC28
:102A10002046BDE8104008F0BBBC00BFDC2A002007
:102A200010B5084C0021204608F058FC04F10800BD
:102A3000002108F053FC044A04490020BDE810407E
:102A40000AF054BFDC2A0020F80D0020B507000072
:102A5000024A034903480AF049BF00BFF80D0020AD
:102A60006D0100004C2B0020024A034903480AF084
:102A70003DBF00BFF80D00206D010000742B002049
:102A8000024A034903480AF031BF00BFF80D002095
:102A90006D0100007C2B0020024A034903480AF024
:102AA00025BF00BFF80D00206D010000EC2A0020BA
:102AB000024A034903480AF019BF00BFF80D00207D
:102AC0006D0100001C2B002000207047704700BFE4
:102AD000036D0BB101207047406D003818BF012015
:102AE000704700BF10B50446806D18B10AF00CFFA6
:102AF0000023A365236D2BB104F11800BDE810403D
:102B000005F0B4BD636D002BF6D110BD10B50446C1
:102B1000806D00B110BD4FF480700AF0EDFEA0652D
:102B2000B0B10022236D02703BB101464FF48072B8
:102B3000184605F0EBF9A06D10BD636D002BE9D0D0
:102B400001464FF48072184602F08EFEA06D10BD53
:102B5000014B1846A36510BDE12F002038B5056D67
:102B60006DB10BB1002038BD1146284603F00AFFB5
:102B70000028F7D02846BDE8384004F0A5B8446DD9
:102B8000002CEFD0204601F0C1FA0028EAD0204600
:102B9000BDE8384002F034B98A79A2F150031B062F
:102BA00022D402F26C72F0B54B7985B0046D01331A
:102BB0000D798E784F78DBB209784CB120460196BA
:102BC0000095CDE90271042104F012F805B0F0BDC2
:102BD000406D0028FAD001960095CDE902710421DC
:102BE00002F052F805B0F0BD0020704710B5044661
:102BF000006D80B1037813F0700F00D110BD00217B
:102C000003F0C0FE606D0028F8D000220023BDE86C
:102C1000104001F07BBA606D0028EFD090F83130A1
:102C200013F0500FEAD000220023BDE8104001F05D
:102C30006DBA00BF036D10B50C4682B02BB30DF119
:102C4000060201A9184603F043FA38B3BDF8043070
:102C5000BDF8062053EA020120D0C2F3451C02F061
:102C60001F00D20AC3F34311400084F801C0A270D0
:102C70005A0A013903F01F0302F5EA6220700120AD
:102C800061712371A27102B010BD406D30B10DF1C0
:102C9000060201A901F0E0F80028D7D1002002B017
:102CA00010BD00BF036D10B50C4682B02BB30DF103
:102CB000060201A9184603F0FBF938B3BDF8043049
:102CC000BDF8062053EA020120D0C2F3451C02F0F1
:102CD0001F00D20AC3F34311400084F801C0A27060
:102CE0005A0A013903F01F0302F5EA62207001203D
:102CF00061712371A27102B010BD406D30B10DF150
:102D0000060201A901F096F80028D7D1002002B0F0
:102D100010BD00BF0369D3B10E4810B41C68E4684D
:102D200084420FD1186D18B15DF8044B04F006B859
:102D3000586D18B15DF8044B02F0D4B800205DF86E
:102D4000044B7047184623465DF8044B1847002093
:102D5000704700BFCD0D0000006990B10368154AAF
:102D60001B69934225D1036D63B1187810F00800F8
:102D700007D0D8695B69C01A48BF6FF00040704740
:102D800018467047436D002BFAD093F8310010F0CD
:102D90000800F6D0186919685A69401A5B6862EB36
:102DA0000303B0F1004F73F10003EAD36FF000406A
:102DB00070471847C90E0000036963B11A680749D4
:102DC00092698A4208D1186D08B103F00BBF586DA3
:102DD00008B101F0E3BD7047184610474D0D0000E3
:102DE000036973B11A68084952698A4207D1186D9C
:102DF00008B103F053BC586D18B101F071B9184611
:102E000010474FF0FF307047A50C0000036D13B161
:102E1000586900217047436D13B1D3E90001704731
:102E200018461946704700BF036D13B1D8690021D9
:102E30007047436D13B1D3E9040170471846194632
:102E4000704700BFF0B595B000224FF47A74244F5C
:102E50001831054604A88DF80C200097CDE901240F
:102E6000CDE9122205F06EFC129B002B2DD05C20C8
:102E7000002608F047FF019B04464660C36004A992
:102E8000029B183040F8083C9DF80C3000F8043CD8
:102E9000144B40F8183C144B40F8103C05F0A4FBD0
:102EA000124B4FF47A72A7602B606368A6650133FA
:102EB0006E602E73AA602C6163600D4B04A80093B2
:102EC00005F0D4FB284615B0F0BD139B002BCED1E6
:102ED000064A2B732A602B61C5E90134EDE700BF78
:102EE000100700203407002090070020E40600208F
:102EF0002C060020036D13B1184603F0CFBB406DC4
:102F000008B101F0EDB84FF0FF307047836C13B19A
:102F1000184603F0C3BBC06C08B101F0E1B84FF034
:102F2000FF307047036D33B11B7813F0700F14BF7F
:102F3000012000207047406D30B190F8313013F01F
:102F4000500F14BF01200020704700BF036D13B164
:102F5000184603F0CFBA406D08B100F0F1BF4FF052
:102F6000FF307047836C00B583B063B101220DF16F
:102F70000701184603F0BEFA01280CD19DF807009E
:102F800003B05DF804FBC06C28B101220DF107010C
:102F900000F0D6FFF0E74FF0FF30F1E7036D13B11B
:102FA000184603F01FBE406D08B101F0F7BC704732
:102FB000836C13B1184603F015BEC06C08B101F064
:102FC000EDBC7047036923B31968134A10B58C68C8
:102FD00082B0944214D1186D48B101220DF107015D
:102FE00003F088FA90B19DF8070002B010BD586D4B
:102FF0000028F8D001220DF1070100F0A1FFF1E750
:1030000001220DF107011846A047EBE74FF0FF3012
:10301000EBE74FF0FF307047FD0C0000036D13B17C
:10302000184603F08BBE406D08B101F05BBF7047DE
:10303000836C13B1184603F081BEC06C08B101F077
:1030400051BF704700B5836C83B08DF8071043B152
:1030500001220DF10701184603F070FE03B05DF880
:1030600004FBC06C0028F9D001220DF1070101F02A
:1030700039FF03B05DF804FB8A79A2F150031B0607
:1030800022D402F26C72F0B54B7985B0046D013335
:103090000D798E784F78DBB209784CB120460196D5
:1030A0000095CDE90271022103F0A2FD05B0F0BD4B
:1030B000406D0028FAD001960095CDE902710221F9
:1030C00001F0E2FD05B0F0BD00207047836C53B104
:1030D000187810F008000DD0D8695B69C01A48BF95
:1030E0006FF000407047C36CA3B193F8310010F04B
:1030F000080000D17047186919685A69401A5B685E
:1031000062EB0303B0F1004F73F10003F2D36FF0F1
:10311000004070471846EDE7036D53B1187810F082
:1031200008000DD0D8695B69C01A48BF6FF0004035
:103130007047436DA3B193F8310010F0080000D13F
:103140007047186919685A69401A5B6862EB030393
:10315000B0F1004F73F10003F2D36FF000407047FD
:103160001846EDE700B5006983B08DF8071060B12F
:103170000368104ADB68934215D1036D43B1012205
:103180000DF10701184603F0D9FD03B05DF804FB0B
:10319000406D0028F9D001220DF1070101F0A2FED7
:1031A00003B05DF804FB01220DF10701984703B05D
:1031B0005DF804FBCD0D000038B504460C4B806D66
:1031C000236018B10AF0A0FB0023A365236D04F16E
:1031D00018054BB1284605F049FA064B2846A3606E
:1031E00005F044FA204638BD636D002BF2D1F4E7B8
:1031F000340700202C06002038B504460E4B806DA5
:10320000236018B10AF080FB0023A365236D04F14D
:1032100018056BB1284605F029FA084B2846A3602B
:1032200005F024FA20465C2108F06EFD204638BDEA
:10323000636D002BEED1F0E7340700202C06002050
:1032400030B4029C11469C4634B1012C1CD0022C97
:103250000ED0002030BC7047056DF5B14FF0FF3344
:10326000934274EB0C04F4D3284630BC03F08ABBC1
:10327000026D0AB3D36959184CF10003002BE8D151
:10328000104630BC03F07EBB026D62B15369591821
:103290004CF10003002BDCD1F2E7406D0028D8D0C0
:1032A00030BC00F033BF406D0028D2D0D0E90023FD
:1032B0008A184CEB0303F3E7406D0028C9D0D0E92E
:1032C000042330BC8A184CEB030300F01FBF00BF7F
:1032D00070B5244B044605690360002D32D06E683A
:1032E000013E6E6076BB2B681F4ADB6A93422FD18A
:1032F000A86D10B10AF008FBAE652B6D23B305F184
:10330000180005F0B3F92569E5B12B68174A5B6829
:10331000934224D1164BA86D2B6018B10AF0F4FA31
:103320000023AB652B6D05F11806A3B1304605F0FF
:103330009DF9104B3046AB6005F098F95C212846AA
:1033400008F0E2FC204670BD6B6D002BD7D1DAE7A8
:1033500028469847D7E76B6D002BE7D1E9E7284669
:103360009847EFE7E406002095080000A90F000049
:10337000340700202C06002070B5264B0446056952
:103380000360002D32D06E68013E6E6076BB2B6804
:10339000214ADB6A934233D1A86D10B10AF0B4FA26
:1033A000AE652B6D43B305F1180005F05FF9256993
:1033B000E5B12B68194A5B68934228D1184BA86D78
:1033C0002B6018B10AF0A0FA0023AB652B6D05F154
:1033D0001806C3B1304605F049F9124B3046AB60D0
:1033E00005F044F95C21284608F08EFC20461421A3
:1033F00008F08AFC204670BD6B6D002BD3D1D6E758
:1034000028469847D3E76B6D002BE3D1E5E72846C4
:103410009847EBE7E406002095080000A90F00009C
:10342000340700202C06002090F81CC04160BCF13D
:10343000020FC26001D18368184707F0C3BF00BF05
:10344000F0B4046840F201251E462561A3B121B302
:1034500011F8015B013B6566256FAF0707D4154680
:10346000013E676F1AB105F8017B2A460468656959
:10347000ED07F1D5002BEAD16EB10368196F89070A
:10348000FAD41146013E5B6F002AF5D001F8013BEA
:103490000A46002EF1D1F0BC704790F83C50D9E7B5
:1034A000324B334930B5D3E911542079C8771A6CBF
:1034B00095F804C081F81CC0087752B1B2F5004FEE
:1034C00023D32C4911442A4A1964D07682F81BC0B0
:1034D00030BD19680F24D86C8C6540F20134CA6184
:1034E0000C614FF47C544C6103210468246883F818
:1034F0003D10214B9C4226D1037F4260022BC260CB
:1035000026D18368BDE8304018472D68E98B09044F
:1035100022D492B2EA832168EC8BA4B2EC82CC8BE9
:10352000240405D5CC8BC2F3080204F47E44224364
:10353000CA83CA8B92B2CA8200210D4A1964D0761E
:1035400082F81BC030BD23461146BDE83040184705
:10355000BDE8304007F036BFE98BC2F3080E92B2E7
:1035600001F47E4141EA0E01E983D4E7880D002091
:1035700000800E400180FFFFD911000043682DE953
:10358000F04FD3E90041814D4FF0B80A22684FF067
:10359000020822EA01027E492260AA6911407D4A9E
:1035A0000A43AA6190F810E07B4A03EB0E0603EB96
:1035B0008E0E317C02EB01118968C1F800A090F8F1
:1035C00011C003EB0C050CF10A0C95F8241002EB6A
:1035D00001118968C1F800A0817C03EB010903EBAC
:1035E000810199F838B002EB0B1BDBF808B0CBF87F
:1035F00000A0D4F800A05F684AEA070AC4F800A057
:10360000347CDEF814E002EB04146468C4F800E0D3
:1036100095F8244053F82CC002EB04146468C4F8F5
:1036200000C0C96B99F8384002EB0412526811606F
:103630009A6C99F8441011601A6A317F5B6B1160C3
:1036400095F830201A600F220368C3F810809A653D
:10365000C27C002A31D072B6C37CDC0708D54FF09B
:10366000E0214469D1F8802122408262C1F88021A2
:10367000990708D54FF0E0218469D1F884212240D0
:10368000C262C1F884215A0708D54FF0E021C4690D
:10369000D1F8882122400263C1F888211F0708D58C
:1036A0004FF0E021046AD1F88C2122404263C1F836
:1036B0008C21DE0655D462B60368384C8268A2427B
:1036C00059D0324A846092693549C2F30116C2F377
:1036D0008262344D51F826100132B1FBF2F2AA4257
:1036E00031D80022C260002403211C6107245962E2
:1036F00001211A641C661961C37C13B3DD0704D56C
:10370000816A4FF0E022C2F800119C0704D5C16A1B
:103710004FF0E022C2F80411590704D5016B4FF0B5
:10372000E022C2F808111A0704D5416B4FF0E022DD
:10373000C2F80C11DB0604D5826B4FF0E023C3F80E
:103740001021BDE8F08F1849A1FB0251090DB2FB11
:10375000F1F2A24288BF0131B1F5817F0DD3134A46
:10376000C0E74FF0E022416AD2F890310B4083630A
:10377000C2F890319FE7C268B5E70229B1D9023992
:103780004C08220242EA04420A43ABE700C00F4061
:10379000CFFFFFE3100000086C08002000093D0087
:1037A0005C080020FF083D0083DE1B43FF7F7F0095
:1037B0000BB1FFF745BE70474368D3E900120968B3
:1037C000114200D1704710B502680446002005215F
:1037D0001061227C1344187C08F0BAF9627C63689B
:1037E0000521134493F8240008F0B2F96368A27C21
:1037F00005211344BDE8104093F8380008F0A8B93B
:10380000704700BF012BF0B5054695B03DD0022BA7
:1038100040F2022001F104010CBF03460023684678
:1038200005F03EF8129B002B38D05C20002608F0F3
:1038300069FA214B04AF0446C0E90036019B3946C2
:10384000183040F80C3C1D4B40F8103C029B40F8EF
:10385000083C9DF80C3000F8043C04F0C5FE184B01
:103860004FF47A72A665A360164B6E602B60636896
:103870002E730133AA602C616360134B38460093AA
:1038800004F0F4FE284615B0F0BD44F202230431E2
:10389000684605F005F8129B002BC6D1139B002B40
:1038A000C3D14FF47A71074A04AF2B732A602B619E
:1038B000C5E90131E1E700BF34070020900700208F
:1038C00010070020E40600202C06002010B5D0F8D8
:1038D00084448EB00A4644B10023214668460093D2
:1038E00002F0B4FD80B90EB010BDD0F8881441B11B
:1038F000234668460C9400F0C7FE50B900200EB075
:1039000010BD08460EB010BD684602F0F3FF0EB0C1
:1039100010BD684600F076FF0028EFD0E3E700BF57
:1039200070B5D0F884548EB016465DB105F5896542
:1039300000230A4668462946009302F005FD90B927
:103940000EB070BDD0F888040028F9D000F5896465
:103950000A462B46684621460C9500F019FE48B9E8
:1039600000200EB070BD32462946684602F0CCFEFB
:103970000EB070BD32462146684601F097F8002827
:10398000EED0DDE710B5D0F884448EB00A464CB1D5
:103990000020012321460090684602F057FD80B9BF
:1039A0000EB010BDD0F8881441B1012368460C94C4
:1039B00000F06AFE50B900200EB010BD08460EB0EF
:1039C00010BD684603F048FE0EB010BD684600F01A
:1039D000BFFE0028EFD0E3E730B5D0F884448FB0C5
:1039E0000A464CB10025012304F58961684600951B
:1039F00002F034FC0FB030BDD0F888040028F9D0B4
:103A000000F58961012368460C9401F0D1F80FB0EC
:103A100030BD00BF10B5D0F884448EB00A463CB12A
:103A2000002321466846009302F010FD0EB010BD41
:103A3000D0F8881431B1234668460C9400F024FE77
:103A40000EB010BD08460EB010BD00BFF8B505465B
:103A500090F8D00408B90146F8BDD5F88434002B9D
:103A60004CD0DC69D5F89004013C002854D00368A0
:103A7000DB6B9847E0B1D5F8900478B303681B6C12
:103A80009847A8B9D5F8900440B3036801215B6C4E
:103A90009847074610B3D5F8840458BBD5F8886416
:103AA00033466EB9D5F8900490B900200146D3E7AB
:103AB000D5F88404E8B9D5F88834002BF5D007464A
:103AC000184602F049F906463FB1D5F8900428B1EE
:103AD000036800215B6C984700B1A41BD5F88434BF
:103AE000FBB19B794FF40071994089B2A1FB0401AD
:103AF000F8BD002704F002FC0646E5E7D5F8883457
:103B0000D5F89004B3B1D3F830440028AFD11846AB
:103B100002F022F90646E0E7184604F0EFFB0646FD
:103B2000DBE7D5F88864002EBFD0D6F83C14A1FBA3
:103B30000401F8BD0028B8D01C4698E790F8D034AE
:103B400063B1D0F8843463B19A794FF40070D969C5
:103B50009040013980B2A0FB010170471846014630
:103B60007047D0F888040028F9D0D0F83C14D0F879
:103B70003004A1FB000170472DE9F043D0F89054C8
:103B80008DB04DB198462B6804462846DB699847AE
:103B9000B0F5405F064604D8002630460DB0BDE8BB
:103BA000F0834FF4007009F0A7FE07460028F3D019
:103BB0000DF10409B6F1806F024643462946484696
:103BC0002ED901F095FB0646384609F09DFE002EE1
:103BD000E2D02B682846271D1B6A984794F8C0340A
:103BE000FF2B21D0D4F8C43404F594650293284601
:103BF000D4F8C8340393B4F8C034ADF8043099E86D
:103C00000E0005F013FD94F8B134C4F89054002B65
:103C1000C3D10123294638461A4604F0CFFDBCE73C
:103C200004F032F80646CFE704F2944594F8CC1439
:103C3000284606F043FB2846C4F8905405F0A0FD42
:103C40000028AAD10123D4F8901438461A4604F06B
:103C5000B5FDA2E7F0B5D0F8906485B00446002E1B
:103C600042D090F8D05490F8D13485B1FE2B63D077
:103C700094F8D20436283DD93368694630469B6CA7
:103C800098470546284684F8D05405B0F0BDFE2B71
:103C900026D090F8D204362849D994F8C034271D8C
:103CA000FF2B2DD0D4F8C43404F59466D4F8C8247E
:103CB00001933046B4F8C0340292ADF800306B4640
:103CC0000ECB05F0B3FC94F8B134C4F8906463B93A
:103CD0000123314638461A4604F070FD054604E0DB
:103CE0001F4B9B689B03D8D40025284684F8D054EA
:103CF00005B0F0BD07F01AFF051E18BF0125F4E757
:103D000004F2944694F8CC14304606F0D7FA3046C4
:103D1000C4F8906405F034FD0028E6D10123D4F8FE
:103D2000901438461A4604F049FD0546DDE707F0D1
:103D3000FDFE0028B1D1D7E7336830465B6D984768
:103D4000421C034694D00028CFD194F8D124FE2AF7
:103D5000CAD103212E201D4607F0FAFEC5E700BF99
:103D60000080004218484FF0290C184A00231849D7
:103D700010B4C0F89424072280F8B1C44FF0FF0CAF
:103D8000C0F8A8144FF47F41124CC0F8AC24124A7A
:103D9000A0F8D014A0F89C3480F8B53480F8CC3466
:103DA00080F8D2C40460C0F8A0240C490C4A5DF825
:103DB000044BC0F88434C0F88834C0F8903480F8DC
:103DC000BC3409F093BD00BFA0200020E407002010
:103DD00000093D00B407002074060020B115000062
:103DE000F80D002070B500F1240384B08C46044621
:103DF00001AD164693E8070085E807004FEA4C122C
:103E00002946206A01F0C4FE012806D1324629461F
:103E1000206A01F0A1FE04B070BD002004B070BDA6
:103E200010B5044600F0BAFD002384F8313084F860
:103E3000333010BD38B514460D46002200F1240180
:103E4000006A01F089FE034620B1428901202A80E0
:103E50001B89238038BD00BF38B514460D460022AB
:103E600000F12401006A01F077FE034620B1C28907
:103E700001202A809B89238038BD00BF38B50D46BC
:103E800090F8311009B1002038BD382204460AF0FC
:103E9000B1F8012340222562184684F8333084F8B3
:103EA000312038BDF0B40D460978202903D115F82A
:103EB000014F202CFBD0156095602C782F2C11D051
:103EC00084B16E1C3C2C1D4F35462AD8212C12D8AB
:103ED00004F1FF3CBCF11E0F16D80020F0BC704767
:103EE00015F8014F202CFBD02F2CF9D01D60114666
:103EF000F0BC01F01FBDA4F1220C5FFA8CFC27FA84
:103F00000CFC1CF0010FE8D12E2C01D0202C0DD17F
:103F100016F8014B002CE5D02F2CE3D03C2C354675
:103F2000D4D95C2CD9D003D97C2CD6D09660EFE7BD
:103F30003E3C012CFAD80020F0BC7047012100055E
:103F40002DE9F04F90F8333083B00546DC0774D587
:103F500058060F46904640F1B080D5E90023D5E9D8
:103F6000041018EB020443F10003A14270EB0303B9
:103F7000C0F0A980B8F1000F5BD0464605F11809E2
:103F8000D5E90032D5F820A0DAF838441C40C4F353
:103F9000080B002C70D1134370D195F831305A06BC
:103FA0004CBFDAF83424EA69AA619AF84504023A67
:103FB000DAF82C14630A824001EB54211144BBF15E
:103FC000000F45D1B6F5007F42D3DAF81C229142AA
:103FD0003ED0B6F5806F58D34FF0010B0BFA00FBC3
:103FE000ABEB030B730A9B4528BF9B4691424FEAFC
:103FF0004B240AD801EB0B039A4206D20AF504704F
:10400000019106F0B5FD0199B8B1DAF814025B46EA
:104010000268D2F814A03A46D04770B1234627442C
:10402000D5E900125B1842F10002361BC5E90032E7
:10403000A8D1404603B0BDE8F08F95F832304FF07C
:10404000FF3043F0020385F8323003B0BDE8F08F53
:10405000CBF5007400220AF50470B44228BF344640
:1040600006F0B2FD0028E8D000EB0B0122463846EE
:1040700007F0AEFD2346D2E7AA6996E795F83330FC
:104080005B060ED5AA6901328EE7DAF814023A46C9
:1040900003681B6998470028CFD04FF400731C4673
:1040A000BDE74A465046A96901F0B4FD0028C4DBCB
:1040B0000CD0D5F820A0AA6977E795F83130190718
:1040C0007FF558AF49E7A1EB020853E795F8313087
:1040D00013F0500FB1D0A8EB06084046AAE700BF86
:1040E000F0B583B00122044685690DF10701D0E9DE
:1040F0000067FFF725FF0128A5610CBF9DF80700A9
:104100004FF0FF30C4E9006703B0F0BD2DE9F04F78
:104110001F4690F8313083B00446D0F81880002B49
:1041200051D01646D0E9001CBC4508BF91425CD076
:1041300056EA07024DD01D0704D5D0E90402B0426B
:10414000BA4140D394F83320751ED4F820A00192D0
:1041500047F1FF309AF845240932D2B2C2F1200E5D
:10416000D540A2F1200900FA0EFB20FA09F045EA39
:104170000B0505430198400633D4481E20FA02F28D
:104180004CF1FF3051EA0C0C00FA0EFE20FA09F057
:1041900042EA0E0242EA000201D0954229D25B06B1
:1041A0004CBFDAF83434E369A36104F1180906E07E
:1041B000A169013D206A01F02DFD002803DD4A467A
:1041C000002DF5D107E00020C4F8188003B0BDE849
:1041D000F08F002383610120C4E9006703B0BDE8CC
:1041E000F08FE3692B44A361F5E7012003B0BDE83C
:1041F000F08FAD1AD9E700BF2DE9F04F174690F8C0
:1042000031208FB00546002A40F0D7808B4691F8C8
:10421000311011F0500F00F0D08003F003019A46E6
:10422000032900F0CA80013103F0080041EA0003CD
:104230000293002F00F0CB80396901F10E08B649D6
:10424000A1FB0818DBE900104FEAD808014308F188
:1042500002085FFA88F805D000200021CBF818206A
:10426000CBE900010024029B264643F04003039360
:10427000202206A95846FFF763FE00B3202840F02D
:104280009C809DF918209DF81830002AC0F2A28069
:1042900034B9DBF80020A2F12009DBF818200192E4
:1042A000444501D20134E4B2002B00F013812022F6
:1042B00006A958460026FFF743FE0028DED11AF46F
:1042C000007F7AD0029B9B0777D5002F75D044459D
:1042D00017D2DDF804A0202206A95846FFF730FEC9
:1042E000631C002861D0202867D12CB9DBF800209E
:1042F000DBF818A0A2F12009DCB2A045EBD8CDF87C
:1043000004A03822002128469BF8334009F072FEB1
:10431000DBF82030C4F38014019A2B6208230026B6
:1043200085F82C4085F831303B68C5E909297B6068
:10433000BE81B8F1000F33D008F1FF39B346DFF882
:10434000DCA15FFA89F9012259462846FFF74AFDA8
:10435000044690B390F90020002A2EDB2022002191
:1043600009F048FE002E00F0BC80BBF1010F00F008
:10437000D780C123A3461E3404F81E3CBB893846AF
:104380001BB9D7E901239A4205D006F045FC2BF86A
:10439000020FA345F2D101365FFA86FBD845D2D889
:1043A000284600F0FBFA06460DE05846DBF8186098
:1043B00000F024FB002840F0918000231E4685F881
:1043C000313085F8333030460FB0BDE8F08F4FF014
:1043D000030847E756BB444538BF0024852B7FF4CC
:1043E00047AF314638222846012609F003FE9DF8E2
:1043F0001C209DF8193085F8303002F03703D206C2
:1044000058BF43F0080385F83130DBF80030DBF8A3
:104410002020203B2A62DBF81820C5E909239BF8FD
:104420003330C3F3801385F82C3021E7C02B28D01C
:10443000C12B7FF43CAF3A4606A9284601F0EEF9BD
:10444000E8B1BB89DBB9D7E901329A4217D11AF436
:10445000006FB2D11AF4884F70D195F833309807B5
:104460006CD41AF4806FA8D11AF4804FABD02846D0
:10447000D5E90423FFF74AFE0028A4D19DE70646AC
:10448000F6E6029B85F833309DF819309B0702D57C
:10449000039B85F833300B9BEB61DDE90823C5E90D
:1044A0000423DDE90C23C5E90223002FCFD04FF010
:1044B00000033A69BB813B687B609DF81B309A42E0
:1044C0007FF4F5AEBE8ABDF81C30F61AB6FA86F651
:1044D0007609CDE6002F7FF4F2AE6EE7CBF81860D8
:1044E0000BE78523237085F8309084F80190DAF883
:1044F0000030002B46D00DF113020DF1160105A876
:104500009847BDF814306381BDF8163023819DF8BB
:10451000133023753FE700BF89888888082A002068
:10452000C02384F801B02370029B63F07F0385F8F9
:1045300033303B69E370BB8AA3802CE795F83130B8
:10454000D9063FF53AAF13F001017FF436AF1AF404
:10455000806F89D095F8332092077FF52EAF002B1E
:104560003FF42BAFD5E90032134304D000220023DF
:10457000A961C5E90023284600F042FC00283FF469
:104580001CAF20E745F621236381E381638202E7C4
:104590002DE9F043002597B0994690F8313001920B
:1045A0001495ADF81450002B3ED191F831300F46E0
:1045B00013F0500F38D01378044616462F2B37D0FF
:1045C0004FF0000801AB02AA31462046FFF76AFC13
:1045D00050B3019E3378002B3ED0002302AA394607
:1045E0002046FFF709FEF8B1A44608AD04F13007F4
:1045F000DCF800000CF1100C5CF80C1CAE465CF80A
:10460000082C10355CF8043CBC45AEE80F00EFD137
:10461000DCF8000008AF2860204600F0BFF984F8FD
:10462000318084F83380CDE7002017B0BDE8F083F7
:1046300016F8011F2F29FBD00196B1B93822204668
:104640003D6A09F0D7FC012340222562184684F810
:10465000333084F83120E8E74B4602AA3946204639
:10466000FFF7CAFD17B0BDE8F0833822002108A883
:104670003D6A09F0BFFC012308AF10958DF8533057
:1046800040238DF851309BE719B101F58961FFF79F
:104690007FBF0846704700BF90F8313063B991F88A
:1046A000313013F0500F07D00B6813F01F0C03D1FB
:1046B00013466246FFF7A0BD002070478169F8B538
:1046C0000446006A01B10131012201F069F90128B3
:1046D000054632D901230146206A1A4601F0C0F985
:1046E000064650B3A3695BB394F83320510612D544
:1046F000591CA94218D022F04002E16984F8332005
:1047000005E0206A01F0A8FA3946B0B1A3694F1C50
:1047100099423A46F5D34FF0FF322946206A01F01C
:104720009BFA50B1A16911B93046A561F8BD2A467E
:10473000206A01F091FA0028F6D100263046F8BD33
:1047400094F8333043F0400384F83330ECE700BF93
:1047500090F833309A0736D5C16970B50546A1B9CE
:104760000024214607E0037803F07F03037095F8E7
:1047700030308B4229D3013401222846FFF732FB27
:10478000E1B20028EFD1002070BD5B06006A34D58D
:1047900090F84534D5E902240933013ADBB244F1FB
:1047A000FF34C3F1200CDA40203B04FA0CFC24FA5D
:1047B00003F342EA0C021A430023013201F050F9DC
:1047C0000028CDD1DFE70020704700232C6A85F850
:1047D0003130204685F8333006F0CAF90028D2D0AF
:1047E00004F5047006F0C4F90028CCD0D4F84004D5
:1047F0000368BDE870401B6A184701F04DFA0028B5
:10480000AED1C0E790F83130DB0601D4002070470C
:1048100010B5002288B000230446FFF777FC08E0BB
:1048200020281BD19DF900309DF80020002B15DBBE
:1048300032B1202269462046FFF782FB0028EFD1E3
:1048400094F833300822204643F0020384F83120E4
:1048500084F83330FFF77CFF08B010BD002008B0AB
:1048600010BD00BF2DE9F0414FF0000882B04A4F63
:1048700006464446414600223046FFF7B3FA054655
:1048800030B10178C02969D0C1292BD0852909D040
:1048900096F83230002043F0010386F8323002B03F
:1048A000BDE8F08196F8313003F0370383803B6830
:1048B00083B10DF103020DF1060101A89847BDF87F
:1048C0000630AB812B82BDF80430EB816B829DF802
:1048D00003306B75326A92F8103243F0010382F8AC
:1048E00010322978A1F185000022B0FA80F0400949
:1048F00001E00422A95CE303012A02F1010243EA78
:10490000540311FA83F39CB201D10028F1D11F2A7C
:10491000F0D908F1010896F830305FFA88F18B423F
:10492000A9D2012206F12401306A01F015F900280C
:10493000AED0356A4480284606F01AF90028A7D080
:1049400005F5047006F014F90028A1D0D5F840044C
:1049500003681B6A98470028A1D199E796F833307D
:1049600013F0400F437814BF43F0020303F0FD033C
:104970004370D6E90401D6E90732C5E90201D6E958
:1049800002016B61C5E9060192F8103243F00103A0
:1049900082F810322978A5E7082A002038B590F867
:1049A000313043B390F93320044690F83330002A75
:1049B0000CDB056A284606F0DBF878B994F832304B
:1049C000002043F0010384F8323038BD03F07F0348
:1049D00080F83330BDE83840FFF744BF05F5047078
:1049E00006F0C6F80028E9D0D5F8400403681B6A31
:1049F00098470028E2D0012038BD00BF70B590F87C
:104A0000313005465A064CD480682B6AD3F83C34C2
:104A10001844B0F1806F01D3002070BD2846FFF725
:104A20004DFE0028F8D0286A0024AE6990F845347D
:104A3000023E9E40D0F82C341E443119052200F568
:104A40000470013406F0C0F84FF400720021002811
:104A5000E2D009F0CFFA286A012390F84524934068
:104A60009C42EAD395F831305B0615D495F8332093
:104A700062F07F02D5E9023185F83320D0F83C247A
:104A80009B1841F10000AB60D5E90431E8609B1848
:104A900041F10001C5E904312846BDE87040FFF747
:104AA0007DBF006A01F0FEF9AFE700BF70B50446B4
:104AB00090F831009CB0002310F0180F0C931A935B
:104AC00003D0206A0B6A984202D000201CB070BD4F
:104AD00040F601236846FFF75BFD0028F5D0A446A9
:104AE00004F130060EADDCF800000CF1100C5CF89F
:104AF0000C1CAE465CF8082C10355CF8043CB44540
:104B0000AEE80F00EFD1DCF8000009AA04F124039D
:104B100028609DF8305007CA83E8070094F83330C6
:104B2000204684F8305063F07F0384F83330FFF779
:104B300035FF0028C9D00021022208230EA81591B4
:104B40008DF86B208DF86930FFF702FEBEE700BFDD
:104B500038B591F8313013F0500F02D100252846B6
:104B600038BD40F602230446FFF746FB0028F5D087
:104B70001023204684F83130FFF740FF0546002817
:104B8000ECD0A169002200232046E161FFF7BEFAC4
:104B9000C12294F8313084F83320002BDFD0412338
:104BA000204684F83330BDE83840FFF75BBE00BFD5
:104BB000F0B5002597B01F4690F831300192ADF85E
:104BC00014501495002B46D191F831300E4613F055
:104BD000500F40D01378044611462F2B3ED001AB26
:104BE00002AA2046FFF75EF9002834D0019B1B780B
:104BF000002B41D0002302AA31462046FFF7FCFAE1
:104C000030B947B302AA31462046FFF7A1FF10B3DF
:104C1000A44608AD04F13006DCF800000CF1100CDD
:104C20005CF80C1CAE465CF8082C10355CF8043CB3
:104C3000B445AEE80F00EFD1DCF8000008AE286004
:104C40002046FFF7EDF8019901AB02AA2046FFF7D5
:104C500029F90028CAD1002017B0F0BD0131019117
:104C60000B782F2BFAD0316A08A8FFF707F9002834
:104C7000F1D0019908AEB2E702AA31462046FFF70B
:104C800067FF17B0F0BD00BF2DE9F04F0E4690F85A
:104C9000311083B009079DF830B09DF834909DF82D
:104CA00038809DF83C7040F18580A2F2BC7294B2CD
:104CB0007F2C7FD85A1E0B2A7CD80BF1FF321E2A7C
:104CC00078D8B8F13B0F98BFB9F1170F8CBF4FF0F0
:104CD000010A4FF0000A3B2F88BF4AF0010ABAF1DF
:104CE000000F67D105460193FFF758FE002861D0F9
:104CF000019B51464BEA431B7B0817F001074BEA27
:104D00004424D34643EA481818BF6427A4B248EAAB
:104D1000C92806F001091FFA88F800222846FFF783
:104D200061F8002846D090F800C0BCF1850F45D04E
:104D30000CF14003DBB2012B3CD8ACF18501002320
:104D4000B1FA81F1490902E0042310F803C04FEAE7
:104D5000CB32012B03F1010342EA5B021CFA82F21F
:104D60001FFA82FB01D10029EED11F2BEDD90AF1E8
:104D7000010A95F830305FFA8AF18B42CDD20122D8
:104D800005F12401286A00F0E7FE98B12C6AA0F82A
:104D900002B0204605F0ECFE60B104F5047005F0A9
:104DA000E7FE38B1D4F8400403681B6A03B0BDE8DD
:104DB000F04F1847002003B0BDE8F08F95F8313070
:104DC0002A6A03F03703838092F8103243F001031C
:104DD00082F81032B9F1000F02D0A0F8108044829E
:104DE000B20703D50775A0F808804481730703D57F
:104DF0004775A0F80C80C48190F800C09DE700BF03
:104E000090F833309A0762D570B5C56982B0044610
:104E1000A5B313F0400634D0006AA26890F845C4E8
:104E2000013AE1680CF1090C41F1FF315FFA8CFCA9
:104E3000CCF1200E22FA0CF2ACF1200C01FA0EFE9D
:104E400021FA0CFCA16942EA0E0242EA0C0201328C
:104E500019B3013D6D1A01312A44019172BB63F00F
:104E60007F03204694ED007B84F8333084ED027B91
:104E700084ED047BFFF792FD02B070BD012002B00B
:104E800070BD816961B90195C1612946206A00F050
:104E900003FFC8B194F83330E1E70195E161DDE744
:104EA00001AA006A019600F0B5FE00280CDB10D1C3
:104EB000019D002DE9D194F83330D0E7002301990A
:104EC00000F0CEFD0028E5D1002002B070BD00202A
:104ED00070474FF0FF32A169206A00F0BDFE002844
:104EE000E6D1F1E72DE9F04390F8333083B0044682
:104EF0009D0740F1A18091461A070E4600F195806A
:104F0000B9F1000F00F0288123684D46206AA1699D
:104F1000D0F8382402EA0308C8F30807B8F1000FF4
:104F200040F09480002900F0D48094F833305B0680
:104F300040F1EC8090F845C4D4E902320CF1090C40
:104F4000013B5FFA8CFC42F1FF32CCF1200E23FAD8
:104F50000CF3ACF1200C02FA0EFE22FA0CFCE26912
:104F600043EA0E0343EA0C031344994280F0D580D0
:104F70000131A16190F845240239D0F82C349140D8
:104F80001944B5F5007FC0F08A80B5F5806FC0F098
:104F9000A680012393406A0AA3EB0803934228BF2B
:104FA0001346D0F81C228A424FEA432809D35F18DF
:104FB000BA4206D2002280F810224FF0FF32C0F829
:104FC0001C22D0F8140232460768BF6AB84798B36B
:104FD00043464644A5EB0805D4E90072D4E9040130
:104FE000DB1942F1000298429141C4E9003207D234
:104FF00094F8331061F07F01C4E9043284F833106F
:10500000002D83D1D4E9020198429141C0F09680ED
:10501000534B1B68002B00F09D8094F833304846BA
:1050200063F07F0384F833300DE0D0E90423FFF709
:105030006DF800287FF464AF94F83230002043F01C
:10504000010384F8323003B0BDE8F08390F84524C2
:1050500002394FEA5828D0F82C3491404144194481
:10506000002F8ED0C7F50078012200F50470A84506
:1050700028BFA84605F0A8FD0028DDD038444744E5
:105080004246314606F0A4FDB7F5007F206A9FD165
:1050900000F5047005F06CFD002899D1CCE762683A
:1050A000636900920193226923689342DDE900233A
:1050B0009A4112D2012200F5047005F085FD002806
:1050C000BAD02A4631463844A84606F081FD2B4620
:1050D0007FE7E16949B3A1614CE70522EBE7D0F82E
:1050E0001C328B4206D1002380F810324FF0FF3380
:1050F000C0F81C32D0F81402324603685B6A984745
:10510000002899D04FF40073984662E704F1180222
:1051100000F080FD00288FDB04D12046FFF7CEFA97
:10512000002889D0A169206A24E72046FFF7C6FA43
:10513000002881D0A169206AE1611BE794F833104F
:105140004846C4E9023261F07F0384F8333003B08B
:10515000BDE8F083484676E7D4E9003252E700BF65
:10516000082A002069B170B5054608460C4609F0CA
:105170002FF82B680246214628465B68BDE8704040
:10518000184770478368C3F3080383B1002110B444
:105190000269D1540133B3F5007FF9D10168D0E938
:1051A00003321C681846636A5DF8044B18470120F7
:1051B000704700BF82680346006940F2FF1CC2F3DB
:1051C000080281546245586801EB7001986800F14B
:1051D0000100C3E9011001D001207047D8681968A7
:1051E00010B404684A1C646A1A601A6923465DF8A0
:1051F000044B184738B58368CAB20D460169C3F33A
:10520000080340F2FF1C0446CA546345416802EBA0
:1052100071024260826802F10102826005D0290AAF
:105220002046BDE83840FFF7C5BF0168C0684A1C8A
:1052300003685B6A2260226998470028EFD138BD75
:10524000F8B50023064601601D46C0E90133A8B247
:1052500005F0F6FDA842044607D0C1B23046FFF77C
:10526000A9FF00283BD10020F8BD6C1CB4F5803F9D
:1052700004D12AE00134B4F5803F04D0A0B205F097
:10528000DFFDA042F6D0671BB7F5007F1DD34FF6B8
:10529000FF713046FFF7AEFF0028E4D0B9B23046C8
:1052A000FFF7A8FF0028DED02546B5F5803FCED118
:1052B0003046BDE8F840FFF765BFC5F3072130462B
:1052C0000135FFF777FF0028CDD0A542E9B230467F
:1052D000EBD2FFF76FFF0028EFD10020F8BDC4F339
:1052E00007213046FFF766FF0028BCD00135DCE718
:1052F0002DE9F04F1F4689B00B680D460490144607
:10530000C16002610846DB699847B0F5801F0090D4
:10531000C0F0D88000230122009E01335200DBB28E
:1053200001D09642F9D81C2B009640F2B780A3F129
:105330000B08012248FA02F1C8F347088A4002919B
:105340000792013301225B109A40069204229A4090
:105350000392022202FA03F30193009A0021039BB5
:105360002046029E4FF0010AD31A4FF400724AF60B
:10537000552BF34003FA06F90593019E08F03AFE17
:10538000FF2384F8BFA184F8C0A1B14484F8C431DC
:10539000224684F8C53107230021284684F8C2310B
:1053A000FE23C4F8C66184F8C3312B68C4F8CA91DF
:1053B0005B6AA4F8FEB19847002863D04FF40072EE
:1053C0000021204608F016FE009B84F86D804FF007
:1053D00000086366F421059B04F17800069AE365F2
:1053E0002023266423726372A372EB23A6654646CC
:1053F00023707623C4F848906370902384F86EA0DD
:10540000A3704523E370582323714623637141231E
:10541000A3715423E371042323664FF48073A4F82B
:105420006830092384F86C308023C4E9142284F89E
:105430006F304FF4C37208F0DDFDA4F8FEB1A8F19F
:105440006A03012B06D9B8F1700F03D014F80830A5
:1054500003EB760608F10108B8F5007FEFD12B6861
:105460002246DDF8049028465B6A4946984748B1D1
:105470002B684946224628465B6A0C31CDF80490D9
:10548000984740BB2FB13B680F22B84938465B684C
:1054900098470026304609B0BDE8F08F1A2B4FF030
:1054A000080800F2A6814FF48043CDF808800193EC
:1054B0004FF4004303934FF4807307934FF400536A
:1054C00006934AE7002FE4D03B681522A8493846E6
:1054D0005B689847D7E742460021204609F1010A58
:1054E00008F088FD4AF6552309F1090204F2FF1974
:1054F000A4F8FE3100239346A04601E018F8013FCE
:10550000C14503EB7606F9D12B6822465146284661
:105510005B6A98470028B5D02B6822460AF10C0137
:1055200028465B6A98470028ACD00AF101039B45E6
:1055300002D09A462378DFE74FF40072002120461C
:105540009B4608F057FD00220AF1030A1146234644
:1055500001E013F8011F984501EB7606F9D12B689D
:105560002246594628465B6A984700288AD02B680D
:1055700022460BF10C0128465B6A9847002881D02F
:105580000BF101018A456AD1231F04F5FE7243F82D
:10559000046F9A42FBD12B68224628465B6A9847E3
:1055A00000283FF46FAF2B680BF10D01224628460F
:1055B0005B6A984700283FF465AF2FB13B680C2227
:1055C0006C4938465B689847069A0021019B204643
:1055D000002613444FF400729946059B4FEA830856
:1055E00008F008FD23464FF0FF3208F20728F821A3
:1055F000B7F1000B4FEA582A03F8011B4FEA98381D
:10560000C4F8012018BF4FF0010BDA605A609A60AD
:10561000C3F80F2002E00136B24523D0B6FBF8F301
:1056200008FB136343B9BBF1000F05D03B680122AF
:10563000514938465B6898472B6809EB06012246BA
:1056400028465B6A984700283FF41CAF002EE2D141
:1056500031464FF40072204608F0CCFCDBE78B4665
:10566000217874E7002F34D03B6802224349384642
:105670005B689847059E079A0736F60806F2FF13FF
:10568000B2EB532F4FEA5329FFF4FDAE4FF40072F3
:105690000021204608F0AEFC07232370B9F1000F6B
:1056A00000F08A804FF0000808E0B8F1000F01D147
:1056B00084F8008008F10108C1457BD9039A284687
:1056C0002B6802EB080122465B6A98470028ECD160
:1056D000D8E6059E079A0736F60806F2FF13B2EBE6
:1056E000532F4FEA5329FFF4D4AE4FF400723946DA
:1056F000204608F07FFC07232370B9F1000FD1D1B9
:10570000039B079A04989918FFF79AFD00283FF425
:10571000C0AE029A4FF400739340049A92689A4282
:105720003FF6B7AE4FF00208029B4FF40072002123
:1057300008FA03F9039B2046994408F05BFC812298
:105740000323049909F1FF3984F820208222237071
:1057500084F84020C4E90D864A684FF0010863656B
:1057600062648B68A3650023E3650EE08C0500206E
:105770002805002040050020500500206805002075
:10578000079B98453BD208F101082B6809EB0801FB
:10579000224628465B6A9847064600283FF472AEC8
:1057A000B8F1010FECD14FF400720021204608F04F
:1057B00021FCE8E7002FA3D03B68162214493846A5
:1057C0005B689847039B079A04989918FFF738FD80
:1057D00000283FF458AE029A4FF400739340049AA5
:1057E00092689A423FF64FAE0A493846FFF7BAFC34
:1057F00098E74FF48072CDF808800792A1E5002F5A
:105800003FF448AE04493846FFF7ACFC42E600BF1F
:10581000540500206C0500207C0500202DE9F04196
:105820000C46154601F11E08AB89284634F8027F64
:105830001BB9D5E901239A420ED005F0EDF905F028
:10584000FFFA0646384605F0FBFA864209D1444580
:10585000EAD10120BDE8F081B7FA87F04009BDE840
:10586000F0810020BDE8F0812DE9F04F90F8313053
:1058700083B08846002B4FD090F830300746012B7C
:1058800053D9013A0B464FF0020A00248E18DFF874
:10589000A0B00022514638460193FEF7A3FA002833
:1058A0003AD00278C12A37D1054600F11E09019B82
:1058B00035F8020F24B300F5105292B2B2F5806FA2
:1058C0002AD20BEA8424C0F30900204300F580307B
:1058D0001946324605F016FA0346E8B100244D4554
:1058E000E6D10AF1010A97F830205FFA8AFA5245A8
:1058F000CFD2A3EB08009846002388F800300FE0D1
:1059000000F5205292B2B2F5006F02D30028DFD129
:10591000EFE7B2F5806F06D30023184688F8003011
:1059200003B0BDE8F08F0446D9E70020E4E700BFEC
:1059300000FC0F0070B50C4600234FF6FF7522687F
:1059400019461E46A3812361626017E005F064F9E1
:10595000A84222D005F074FA2369F203A189013329
:1059600042EA5602060A236152FA80F083B2C0F37B
:105970004E0040EAC33016FA80F086B22046002975
:10598000E4D1D4E901239A42E0D12069A68201380A
:10599000FE288CBF0020012070BD002070BD00BF1C
:1059A0002DE9F84F07468A469146002942D0A1F1D9
:1059B0000208D7F83034434542D908F007030125DF
:1059C000C8F3C80B9D40EDB246464446D7F82C14A8
:1059D0000022384601EB143105F0F6F8E8B10BF17E
:1059E000FF3B834400F2FF101BF8011F0AE04A4509
:1059F0002BD0A04510D0D7F83054A54214D913F0BD
:105A0000FF050CD0013429424FEA4503A4EB0602FE
:105A1000EDD0A0452646EED10120BDE8F88F5845CF
:105A20004FF00105E0D101E00026344601254FF09A
:105A3000000BCBE7D0F82084D7F830344345BCD8EE
:105A40004FF000080125C346BEE7BAF1000F04D1AC
:105A5000B9F1010F08BFC7F82064B01CBDE8F88F8A
:105A60002DE9F8438046881E15461E468318D8F84F
:105A70003024934237D8CEBBD8F82034834288BF35
:105A8000C8F8200400F007030124D8F82C74C0F3F0
:105A9000C8099C4007EB1031E4B2012240468F1840
:105AA00005F092F8F8B109F1FF3E864400F2FF10CC
:105AB0001EF801CF1CEA040F8CEA040C4FEA4404E0
:105AC00014BF01220022B2420DD0013D8EF800C069
:105AD00018D014F0FF04EDD17045A1464FF0010439
:105AE000E6D13946D9E70020BDE8F883D8F820147C
:105AF0008B42C7D98142C5D3934228BF0023C8F83F
:105B00002034BFE70120BDE8F88300BFF8B5D0F826
:105B1000303401338B4201D20020F8BD07460C46D9
:105B200000F50476002505E0D7F83034013501335F
:105B3000A342F1D3D7F824140022304601EBD4114C
:105B400005F042F8A4000028E6D0C4F30804045984
:105B5000631CE9D1681CF8BD38B50C460B6890F899
:105B600045C400F50470D0F82812023B656803FABA
:105B70000CF3294003EB5123D0F81C12194405F013
:105B800023F818B16368C3F30803184438BD00BF95
:105B90002DE9F8430C46D0F8383449680B401144DD
:105BA0006160134490F8451401F10902D2B2D34068
:105BB0002BB380465D1E00F5047905E02368013DA6
:105BC00003F1010323601AD3267A002EF6D1D8F808
:105BD000303432462768484601339F4212D8D8F8FD
:105BE000241401EBD71104F0EFFFBF0050B1C7F34D
:105BF0000807C3595A1C09D0013D2360E4D2012093
:105C0000BDE8F8834FF0FF30BDE8F8833046BDE8CB
:105C1000F88300BF38B5D0F8303401338B4202D25C
:105C20004FF0FF3038BD0C46D0F82414154600F56F
:105C30000470002201EBD41104F0C6FF0028EFD05D
:105C4000A400C4F3080403595A1C02D001202B609D
:105C500038BD002038BD00BF01291BD938B5D0F8A8
:105C600030340C4601338B4201D2002038BDD0F8CD
:105C70002414154600F50470012201EBD41104F040
:105C8000A3FF03460028F0D0A4000120C4F30804B9
:105C90001D5138BD00207047D0F83034013399428F
:105CA00001D9002070472DE9F04F054683B00C461E
:105CB00000F504790F464FF00008D5F824140022AF
:105CC00048464FEAD41B01EBD41104F07DFF90B19C
:105CD000A300C3F30803C2580193531C16BF164612
:105CE0004FF0000A4FF0010A012C04D9D5F83024F6
:105CF0000132944203D9002003B0BDE8F08FD5F8FB
:105D0000241401224846594404F05EFF0028F2D0D2
:105D1000019B40F80380BAF1000F12D00134B44265
:105D200008D00023E21B39462846FFF799FE0028D9
:105D3000E1D03746D5F830340133B342DBD33446B3
:105D4000BBE7621C534639462846D21B03B0BDE868
:105D5000F04FFFF785BE00BF2DE9F843002506464A
:105D6000D0F82C1400F504782C46002240464F1C35
:105D700004F02AFFA8B100F1FF3E04F58059D6F8DF
:105D8000300405E079B90834844209D24C4516D074
:105D90001EF8011FFF29F5D1083408358442F5D3D8
:105DA000401BBDE8F8830822012319424FEA430C47
:105DB00018BF0135013A5FFA8CF3F6D1E3E73946B3
:105DC000D3E700BFF8B500234FF0FF3600F50477A6
:105DD0001546C0F84014044641601A46C0F8141233
:105DE000194680F844340370C66080F81032C0F859
:105DF0001C62384604F0E8FE042D0DD8064658B162
:105E0000BDB16B1E00EB031393F8BE2112F07F02AD
:105E100002D193F8C2310BB90020F8BD00EB051692
:105E20003846D6F8B651294604F0CEFE064600287C
:105E3000F2D005221A49F01C08F02EF90028EBD107
:105E400096F86C30092BE7D1336D01462B44C4F82A
:105E50002434736DC4F82834B36D2B440125C4F881
:105E60002C34F36DC4F83034336EC4F8343496F8FF
:105E70006D20C4F82004204602F1090384F845246B
:105E800005FA03F35A1EC4F83C34C4F838242A46F1
:105E9000FFF786FD4023284684F84434F8BD00BF50
:105EA0009C05002010B50446D0F83414FFF72EFEF0
:105EB00094F845340933DBB2984010BD70B590F9C1
:105EC000023082B00446002B0DDBA56805F12800E6
:105ED00004F04EFE00283BD16378002043F001031C
:105EE000637002B070BD80680122A169283004F09F
:105EF0006BFE0028F0D0A58805F00F056B0100EBC4
:105F00004515C35CE52BE7D023781B0701D5E36972
:105F1000EB61236A15491A0C6B830E68AA8266B17D
:105F20000DF103020DF1060101A8B047BDF80430E0
:105F3000BDF806202B836B82EA82A378A56803F064
:105F40007F0305F12800A37004F012FE0028C3D0DF
:105F500005F50E7004F00CFE0028BDD0286803681B
:105F60001B6A98470028B7D0BBE700BF082A00206B
:105F7000024638B552F8105F04468068294602F0A0
:105F800021F950B155B123690135AB42A37818BF4F
:105F900003F0BF0363F07F03A37038BDA37843F021
:105FA0004003F7E7F8B5047814F0200404D11A4B45
:105FB000054642699A4202D300273846F8BDFFF7EA
:105FC000D7FF07460028F7D0A8682E698279023EDD
:105FD000416996400E440179A9B1214606E008F0D6
:105FE00009F8A868E1B202798A420BD93144052246
:105FF0002830013404F0E8FD4FF40072002100283D
:10600000EDD1D9E782794FF400736969384693403E
:1060100011FA83F36B61F8BD00FE1F0010B5044652
:1060200080680A462830A16904F0CEFD20B1A3881B
:1060300003F00F0300EB431010BD00BF10B5037851
:1060400004462BB1FFF73AFF00232370A37010BD65
:10605000002301202370A37010BD00BF38B5037862
:1060600005460C4613B1FFF729FFF0B1A8680022DE
:10607000A969283004F0A8FDB8B1AA8802F00F027F
:1060800000EB421352015D6880589968DA6820601D
:106090006560A160E26018695D699969DA692061EB
:1060A00001206561A161E26138BD002038BD00BFFB
:1060B00030B589B00D4614466946FFF7CFFF28B1C9
:1060C000BDF81020BDF80E302A80238009B030BD05
:1060D00030B589B00D4614466946FFF7BFFF28B1B9
:1060E000BDF81820BDF816302A80238009B030BDD5
:1060F0000B7813F0700F01D100207047F0B540F617
:10610000022389B00D46044601F0F0F838B10122AF
:1061100010232046A2702370FFF744FF10B900201F
:1061200009B0F0BD2269237822626BB1636933B193
:10613000A378002223F02003C4E90422A3702046A0
:10614000FFF7BCFE0028EAD0A0680122A169283030
:1061500004F03AFD0028E2D0B4F804C010220CF09C
:106160000F0C4FEA4C1300EB4C1C8CF80B20C05862
:10617000A768236A97F806E09E1EDCF80410DCF896
:106180000820DCF80C3006FA0EF6EE46AEE80F00FA
:10619000DCF81000DCF81410DCF81820DCF81C30F7
:1061A000AEE80F007B6907F128000122F1184FF0DB
:1061B0002033CDF80130CDF80530ADF8093004F0CA
:1061C00003FD84460028AAD02E27EE468DF80070E5
:1061D0007646BEE80F00CCF80000CCF80410CCF8EE
:1061E0000820CCF80C308DF80170BEE80F00CCF818
:1061F0001000CCF81410CCF81820CCF81C302B6A06
:106200001A0CADF81A30ADF814200FCECCF82000DF
:10621000CCF82410CCF82820CCF82C300FCECCF8B9
:106220003000CCF83410CCF83820CCF83C30A468DE
:1062300004F1280004F09CFC00283FF470AF04F542
:106240000E7004F095FC00283FF469AF20680368E5
:106250001B6A09B0BDE8F040184700BF2DE9F041C6
:10626000002694B0984603780192ADF814600B961E
:10627000002B41D10B780D4613F0700F3CD01378F2
:10628000044616462F2B3BD0002728E0019E367887
:10629000002E50D001F02AF8034602AA29462046D3
:1062A0002BB9B8F1000F27D0FFF722FF20B3A64685
:1062B0000DF12C0CBEE80F00ACE80F00BEE80F009B
:1062C000ACE80F00DEF8005020462378CCF80050F0
:1062D0000BB1FFF7F3FD019E0BAD2770A7703146A0
:1062E00001AB02AA204601F04DF9064602AA294652
:1062F00000232046002EC9D1002014B0BDE8F08153
:106300000136019633782F2BFAD0AD682422002174
:106310000BA807F06FFE0D95EB79102B03D0202B07
:106320000FD00C2BE8D120238DF82C3001230BAD9E
:106330008DF82E30A8E702AAFFF7DAFE14B0BDE808
:10634000F0814023F0E700BF2DE9F041002594B033
:106350009846037801920295ADF83850002B37D15A
:106360000B780E4613F0700F32D0137804461546A2
:106370002F2B31D000271EE0019D2D78002D40D01D
:1063800000F0B4FFA6460DF1080C08B36646257868
:10639000BEE80F00ACE80F00BEE80F00ACE80F004D
:1063A000DEF800302046CCF800300DB1FFF786FD56
:1063B000019D2770A770294601AB0BAA204601F06A
:1063C000E1F805460BAA314600232046002DD3D123
:1063D000002014B0BDE8F0810135019529782F29FE
:1063E000FAD0A9B9B5682422204607F003FEA560BB
:1063F000EB79102B03D0202B22D00C2BE8D12022BC
:106400001FE043460BAA00F071FF14B0BDE8F08115
:10641000B6682422002102A807F0ECFD0496F37967
:10642000102B03D0202B03D00C2BD1D1202300E044
:1064300040238DF80830012302AE8DF80A3099E729
:106440004022012322701846A370C2E719B101F55A
:106450008961FFF779BF0846704700BFCB6870B508
:106460000D46044693B906780EB1184670BD8D6886
:106470002422314607F0BEFDA560EB79102B18D021
:10648000202B10D00C2B14D0304670BD24220021BC
:1064900007F0B0FD01201023A0702370D5E902237E
:1064A000A260236270BD4022012322701846A370AF
:1064B00070BD2022F8E700BF70B505780DB100204F
:1064C00070BD0E4604462422294607F093FDA660BF
:1064D000F379102B0BD0202B03D00C2B07D02846A0
:1064E00070BD4022012322701846A37070BD202287
:1064F000F8E700BF2DE9F04F2DED028B837883B0D4
:106500000546DF0740F18C808846017892460E07E9
:1065100000F191808C0608D583685A894369C3EBE2
:1065200042139BB29A4528BF9A46BAF1000F00F079
:10653000AF806A6905F11003880656464FF00009DE
:1065400008EE103AAF68C2F3080B3DD5396A01EB8B
:106550005221BBF1000F51D1B6F5007F4ED37A6BBB
:1065600091424BD0B6F5806FC0F082802878730AD4
:10657000800605D43879A0EB0900834228BF034682
:1065800091424FEA43240CD8C818824209D207F13D
:106590002800CDE9001304F0EBFADDE90013002830
:1065A0003ED0F86A026857694246B847002837D09B
:1065B0006A69361BA04422446A6169D02978C2F313
:1065C000080BAF688806C1D497F8059009EA5229EC
:1065D000BBF1000F36D1B9F1000F33D1002A33D10E
:1065E0004A064CBF3A6A2A6A2A61023AB87979693E
:1065F000824049441144BBF1000FADD0CBF500748B
:10660000002207F12800B44228BF344604F0DCFA27
:1066100030B100EB0B012246404605F0D9FAC7E73E
:106620006B784FF0FF3043F002036B7003B0BDECAA
:10663000028BBDE8F08FC36942699B1A9A4528BF57
:106640009A4672E72A69D0E70B0705D5AA7854065F
:1066500002D52A690132C7E718EE102A384629699F
:1066600001F0FEFD0028DBDB0CD0AF682A69BCE737
:10667000F86A424603681B6998470028D0D04FF457
:10668000007495E72B7813F0700FC9D0AAEB060AB7
:10669000504603B0BDEC028BBDE8F08F70B582B000
:1066A000012204460DF10701D0E90456FFF722FF4D
:1066B00001280CBF9DF807004FF0FF30C4E90456D5
:1066C00002B070BD436913F4F07F30B5044683B067
:1066D000C3F3431509D0012907D120334361A068D2
:1066E000383000EB451003B030BD01220DF1070139
:1066F0002046FFF7FFFE40B2012803D163691F3334
:106700006361ECE70020EEE72DE9F04103789AB0F1
:10671000002613F0180F0896119606D017468368C6
:106720008A6804460D469A4203D000201AB0BDE89C
:10673000F081FFF7C3FBA6460DF1440CBEE80F0045
:10674000ACE80F00BEE80F00ACE80F00DEF8003048
:106750003246A169CCF80030A36803F1280004F0A8
:1067600033FA0028E1D0A288EC4694F8008002F0C9
:106770000F0200EB421E5201DEF804108058DEF8D2
:106780000C30DEF80820ACE80F00DEF81410DEF85C
:106790001820DEF81C30DEF81000ACE80F0018F00E
:1067A00008033A46294640F09B8008A8FFF756FDAB
:1067B0000028BAD0109EBDF8243000250E99012281
:1067C000A3809DF82330A068E3700B9B2830A16163
:1067D000E3608DF820508DF8225004F0F5F9002880
:1067E000A3D0A38803F00F0300EB4310DDF80D30B6
:1067F000C0F80D30DDF81130C0F81130DDF815307B
:10680000C0F81530DDF81930C0F81930BDF81D306A
:10681000A0F81D309DF81F30C3779DF80B30C37270
:10682000002E3BD0A068B31E2A46817928308B40C9
:1068300050F8141C194404F0C7F9054600283FF429
:1068400074AF006A6F46696AAA6AEB6A0FC7286B61
:10685000696BAA6BEB6B0FC73146A06801F022FD94
:1068600000283FF462AFA068236A82792830023B97
:1068700050F8141C93400122194404F0A5F906466F
:1068800000283FF452AF6D460FCD30627162B262A4
:10689000F3620FCD30637163B263F36300210222B0
:1068A000082311A819918DF846208DF8443000F086
:1068B000D3FE00283FF439AFA46804F1280004F0A7
:1068C00057F900283FF431AF04F50E7004F050F989
:1068D00000283FF42AAF206803681B6A984725E721
:1068E00040F601236046FFF72FFD00287FF463AFD9
:1068F0001BE700BF0378DA0601D400207047436924
:1069000030B5044683B033B18378002223F02003EE
:10691000C0E90422837000230FE06361A3686A0169
:1069200038339A5C03EB4513EAB1E52A04D02E2AEA
:1069300002D0DB7A1B0722D5636913F4F07FC3F31F
:10694000431503F12003E8D101220DF10701204690
:10695000FFF7D0FD40B2012803D163691F336361A3
:10696000DCE763785BB9A3780822204643F0020392
:106970002270A37003B0BDE8304000F06DBE00206F
:1069800003B030BD2DE9F041037804460769002BC0
:1069900039D00D464169A94242D0002D37D01807A1
:1069A0002AD5E269AA422ED3D4F808C06E1EA27876
:1069B0009CF8060012F0400F00F10900C0B226FA60
:1069C00000F630D14A1EC24009B196422FD25B0672
:1069D0004CBFDCF82030236A236104F1100806E084
:1069E0002169013EA06801F03BFC00280BDD424616
:1069F000002EF5D1A2780CE09A06D5D5A3685B8964
:106A0000B5EB431FF6D900202761BDE8F0818278FD
:106A1000056122F0200201206561A270BDE8F081CD
:106A20000120BDE8F081236A33442361F1E7B61AFF
:106A3000D3E700BF2DE9F0410E4615460021242280
:106A4000044698469DF8187007F0D4FAB068336A87
:106A500000F13802A58005F00F0502EB4512C4E9EC
:106A60000203D17A0B0711D401F017012170D37AF8
:106A700013F0180F02D141F00801217008F0030350
:106A8000E770012B38D0022B06D0F3B10023184653
:106A90002370A370BDE8F08103232178CD06F5D4DF
:106AA000CE07F3D408F0080118F4806F43EA01031D
:106AB000A370416B958AA161518B41EA054112D0C7
:106AC00019BB63F07F03A37010E018F4806FDDD171
:106AD00008F0080343F00103A370416B938AA1619E
:106AE000518B41EA03412162D369E36118F4804F7D
:106AF00004D10120BDE8F0810223CEE7E169204600
:106B0000FFF740FF0028F4D1C0E701F0CBFB0028DD
:106B1000BCD0A378D5E700BF0378002B45D12DE981
:106B2000F0470B7884B00C4613F0700F30D04B69EF
:106B300013F01F052CD106469046A94601220DF1FF
:106B40000F012046C3F3431A5F09FFF7D3FC40B29D
:106B50004FEA4A1201281BD16369A1681F3301F172
:106B6000380C63611CF802200CEB4A1C82B12E2AFF
:106B700012D0A2F1E500B0FA80F0400960B99CF8AB
:106B80000B1011F0080E12D00F2907D00546D5E7DB
:106B9000002004B0BDE8F0870025CFE75106CDD531
:106BA00002F01F059CF80D90C8E70020704785B1E2
:106BB0000CF10A0101E01CF8012F4FEACE136145E8
:106BC00043EA5E0352FA83F35FFA83FEF3D1CE45C4
:106BD000DED14346BAB2214630460095FFF72AFF80
:106BE000D7E700BF03780BB1FFF768B90120704702
:106BF0002DE9F0470E46017882B009079DF828700C
:106C00009DF82C909DF830A09DF8348018D5A2F204
:106C1000BC7294B27F2C13D85A1E01930B2A0FD842
:106C20007A1E1E2A0CD8BAF13B0F98BFB9F1170F84
:106C300006D8B8F13B0F03D80546FFF73FF918B95E
